:020000040800F2
:10000000084B002099010008AD2A0008D5250008FA
:10001000E928000873040008FD4F000800000000F4
:1000200000000000000000000000000001010008C6
:100030008F0900080000000045010008DD380008B5
:10004000B3010008312E0008B3010008B301000815
:10005000E10900086D300008B3010008AF0900088D
:10006000B5090008BB090008C1090008B301000870
:1000700035090008410900084D0900085909000820
:10008000B3010008B3010008B3010008214F0008C4
:100090002D4F0008B3010008B3010008C70900088C
:1000A000B3010008B1390008B3010008B30100082A
:1000B000B3010008B3010008BD390008B30100080E
:1000C000B3010008B3010008B30100086D32000855
:1000D000B3010008BD3E0008B3010008B3010008E9
:1000E00091090008B3010008B3010008DFF80CD043
:1000F00000F0F4F8004800470D580008084B0020B5
:10010000224B19680868B0E8F00F80F30988BFF344
:100110006F8F4FF0000080F311884EF00D0E704786
:100120000000000006480068006880F3088862B696
:1001300061B6BFF34F8FBFF36F8F00DF00BF00BF0B
:1001400008ED00E0EFF30980BFF36F8F0F4B1A68E3
:1001500020E9F00F106008B54FF0500080F31188CF
:10016000BFF34F8FBFF36F8F09F052FD4FF00000C8
:1001700080F31188BDE8084019680868B0E8F00FFE
:1001800080F30988BFF36F8F704700BF48000020DD
:10019000EFF3058070470000064880470648004797
:1001A000FEE7FEE7FEE7FEE7FEE7FEE7FEE7FEE727
:1001B000FEE7FEE769390008ED000008202A04DBAD
:1001C000203A21FA02F00021704721FA02F3D040D0
:1001D000C2F12002914008431946704740EA0103EA
:1001E0009B0703D009E008C9121F08C0042AFAD2ED
:1001F00003E011F8013B00F8013B521EF9D27047B1
:10020000D2B201E000F8012B491EFBD27047002258
:10021000F6E710B513460A4604461946FFF7F0FF05
:10022000204610BD10B5044604E00B7800F8013BF1
:1002300003B1491C521EF8D2204610BD421C10F8D2
:10024000011B0029FBD1801A704710B5002200E085
:10025000521C835C8C5CA34201D1002BF8D1D8B234
:10026000E1B2401A10BD034611F8012B00F8012B32
:10027000002AF9D1184670472DE9F05F05460020A5
:1002800092469B4688460646814640241BE0284607
:10029000414647462246FFF791FF53465A46C01A49
:1002A000914110D311461846224600F029F82D1A24
:1002B00067EB01084F4622460120002100F020F89C
:1002C00017EB00094E41201EA4F10104DFDC484673
:1002D00031462A464346BDE8F09F0000064C074DD4
:1002E00006E0E06840F0010394E807009847103406
:1002F000AC42F6D3FFF7FEFE58A8000878A8000825
:10030000202A04DB203A00FA02F1002070479140D5
:10031000C2F1200320FA03F319439040704770B5EF
:100320008C1810F8015B15F0070301D110F8013BA0
:100330002A1106D110F8012B03E010F8016B01F827
:10034000016B5B1EF9D12B0705D40023521E0DD47F
:1003500001F8013BFAE710F8013BCB1A921C03E0CD
:1003600013F8015B01F8015B521EF9D5A142D8D305
:10037000002070BD2DE9F843364C0127DFF8D88006
:10038000E771A06A0026A063607A012806D1207A6E
:10039000012803D1002009F0DBFB2672A06B0028A6
:1003A0001CDB00EB40018DF8006018F8012001EB28
:1003B000080052428DF801204078042240428DF816
:1003C00002008DF803606946244803F0F5FEA06B37
:1003D000401EA063012009F013FAD5E7DFF88090F2
:1003E000A663217819F83120617802FB01F3DDB2B0
:1003F0000AB90D462770012900D10125217809EBA2
:10040000C1004268A06B824202D10AB1491C21702E
:10041000A16A88421CD800EB400101EB080018F8E3
:1004200001208DF8012041788DF8021080788DF838
:1004300000008DF8036004226946084803F0BCFE02
:10044000A06B401CA063284609F0DAF96772C8E780
:10045000BDE8F88380010020E02D0020100400207A
:10046000504500200120FFF785FF012009F0C8F961
:10047000F8E7FEE738B50125002404226946134851
:10048000009503F099FE322009F0BAF98DF800408A
:10049000042269460D4803F08FFE0D480D4B816A1A
:1004A000C16290F9052003EBC203521C59604271EE
:1004B000094A01EB4103491CD4541A445470957005
:1004C00081628179491C8171448138BD100400200A
:1004D0008001002050450020E02D00202DE9F84F3C
:1004E000F64F8246DFF8D893D7E90A40251A00264E
:1004F00019E000BF04EB440101EB090019F80120E9
:10050000694652428DF801204078042240428DF81D
:1005100002008DF80060EB4803F04EFE0120641EDF
:100520006D1E09F06DF9002DE4DAD7E90A01B8462D
:10053000451A4F4615E000BF04EB44017A56D8F83F
:10054000303039441A44C8F8302091F90110D8F8F5
:10055000342001201144641C6D1EC8F8341009F0C9
:100560004FF9002DE8DA45464FF0FF32D5E90A0190
:10057000401A241AD8F830100120002922DD6B6BB4
:10058000002B7DD18046286B401E286379D08DF8E2
:1005900001808DF8026004EB44018DF8008007F8BB
:1005A0000180394404224E7081F802806946C548B2
:1005B00003F002FEE86A641C401CE862504609F041
:1005C0001FF9E0E725DA6B6B002B7DD1494290469D
:1005D00081462963286B401E2863D7D08DF801809F
:1005E0008DF8026004EB44018DF8009007F801805B
:1005F000C8190422467080F802906946B14803F099
:10060000DBFDE86A641C401CE862504609F0F8F81B
:10061000E0E749D1696B00291FDD8046686B401E09
:1006200068637DD08DF801608DF8028004EB440191
:100630008DF800807E543944042281F8018081F8CD
:10064000028069469F4803F0B7FDE86A641C401CBD
:10065000E862504609F0D4F8E0E773DA494291467F
:1006600080466963686B401E686359D08DF80160ED
:100670008DF8029004EB44018DF800807E5401E077
:1006800013E084E03944042281F8019081F802806B
:1006900069468C4803F090FDE86A641C401CE862DF
:1006A000504609F0ADF8DDE770DD6B6B002B4ADAE0
:1006B000C3F10003994221DD8046286B401E286368
:1006C00065D08DF8018000E085E08DF8026004EBD4
:1006D00044018DF8008007F80180394404224E70EF
:1006E00081F802806946774803F066FDE86A641C79
:1006F000401CE862504609F083F8DEE791468046E8
:100700006B63686B401E686362D08DF801608DF882
:10071000029004EB44018DF800807E54394400E0DF
:1007200056E081F8019081F802800422694665480C
:1007300003F042FDE86A641C401CE862504609F080
:100740005FF8DEE724E023DD9942804621DD286B57
:10075000401E28631BD08DF801808DF8026004EBE9
:1007600044018DF8008007F80180394404224E705E
:1007700081F802806946534803F01EFDE86A641C54
:10078000401CE862504609F03BF8E0E722E06E6367
:10079000BBE0686B401E68631AD08DF801608DF86D
:1007A000028004EB44018DF800807E543944042219
:1007B00081F8018081F802806946424803F0FCFC20
:1007C000E86A641C401CE862504609F019F8E0E74A
:1007D0002E639AE078DA6B6B002B49DAC1F10001E5
:1007E000C3F10003994221DD914680462963286BBD
:1007F000401E2863CBD08DF801908DF8026004EB89
:1008000044018DF8008007F80190C8190422467051
:1008100080F8028069462B4803F0CEFCE86A641C2D
:10082000401CE862504608F0EBFFE0E79146804646
:100830006B63686B401E6863CAD08DF801608DF8E9
:10084000029004EB44018DF800807E543944042268
:1008500081F8019081F8028069461A4803F0ACFCE7
:10086000E86A641C401CE862504608F0C9FFE0E7F3
:100870004BDD4942994228DD914680462963286B29
:10088000401E286383D08DF801908DF8026004EB40
:1008900044018DF8008007F80190C81904224670C1
:1008A00080F802806946074803F086FCE86A641C09
:1008B000401CE862504608F0A3FFE0E780010020FA
:1008C000E02D0020100400201FE08046686B401ED1
:1008D0006863B1D08DF801608DF8028004EB4401AB
:1008E0008DF800807E543944042281F8018081F81B
:1008F000028069460D4803F05FFCE86A641C401CF6
:10090000E862504608F07CFFE0E7E96AA962084A1D
:1009100095F9050002EBC002401C51606871A8798E
:10092000401CA8716E81BDE8F88F00001004002003
:1009300050450020014800F0EFB800008002002080
:10094000014800F0E9B80000C4020020014800F0AE
:10095000E3B8000088030020014800F0DDB8000083
:10096000CC03002030B590F840500124AC40C56B5A
:100970006C60046863604368102B036803D099605F
:100980000068C26030BD9A600068C16030BD7047C9
:1009900010B54FF4806000F055FA4FF4006000F09D
:1009A00051FABDE810404FF4004000F04BBA02206D
:1009B00000F048BA042000F045BA082000F042BA1E
:1009C000102000F03FBA10B5202000F03BFA402084
:1009D00000F038FABDE81040802000F033BA7047CC
:1009E00000F0ACB9064A0021D16106490A6942F01B
:1009F00002020A614861086940F0400008617047DE
:100A0000E80C002000200240044B0022DA61044A76
:100A1000136943F00103136101807047E80C002063
:100A20000020024014480022C168CB06134904D5B7
:100A3000CA6942F00202CA611022C3685B0705D589
:100A4000CB6943F00103CB6142F00402C369DB07C9
:100A500007D0CB6943F00403CB61C16921F00101E8
:100A6000C161A2F58071013901D0C2607047C169CE
:100A700021F00101C161704700200240E80C002014
:100A800010B590F821100024022903D004218163BD
:100A900001243DE001680A6822F00E020A60016844
:100AA0000A6822F001020A601A4A0168914201D1E3
:100AB000012121E0174A1432914201D110211BE09B
:100AC000144A2832914201D1891515E0114A3C326D
:100AD000914201D189140FE00E4A5032914202D165
:100AE0004FF4803108E00B4A6432914202D14FF456
:100AF000801101E04FF08071064A083A51600121EF
:100B000080F82110002180F82010416B01B1884746
:100B1000204610BD080002402DE9F05FC16B0C6853
:100B200001680B68D0F840C0042202FA0CF2494D6B
:100B3000DFF824A1494E4A4FDFF828B1DFF828E159
:100B400022422CD05A072AD50A68920603D40A6892
:100B500022F004020A600168A94201D1042219E0CE
:100B6000514501D1402215E0B14202D14FF48062DB
:100B700010E0B94202D14FF480420BE0594502D156
:100B80004FF4802206E0714502D14FF4800201E06B
:100B90004FF080622F4908394A60C16A3BE04FF04C
:100BA000020808FA0CF818EA040F4FF000094FF099
:100BB000010235D05FEA837832D50B689B0605D4F5
:100BC0000B6823F00A030B6080F821200168A9421A
:100BD00001D1022219E0514501D1202215E0B14294
:100BE00002D14FF4007210E0B94202D14FF400522A
:100BF0000BE0594502D14FF4003206E0714502D1B5
:100C00004FF4001201E04FF00072124908394A60B7
:100C100080F82090816A00291AD0BDE8F05F08476B
:100C2000082505FA0CF5254212D01B0710D50B68D4
:100C300023F00E030B6090F84010C36B02FA01F131
:100C40005960826380F8212080F82090016BE2E7F0
:100C5000BDE8F09F080002401C0002403000024046
:100C600044000240580002406C00024030B528B3F6
:100C700008C8134914221944B1FBF2F18900C16379
:100C800010498163022141771A6843F6F0718A4363
:100C9000D0E900142143D0E902452C4321430469E3
:100CA0002143446921438469214311431960002190
:100CB0004163012242770177084630BD012030BDF3
:100CC000F8FFFDBF0000024070B5044690F8200018
:100CD000002501280CD0012084F8200094F8216020
:100CE0000020012E06D084F820000225284670BD81
:100CF000022070BD022684F82160A0632068066887
:100D000026F0010606602046FFF72CFEE06A002868
:100D10002068016802D041F00E0106E021F00401D4
:100D200001602068016841F00A01016020680168E3
:100D300041F001010160D9E7704700002DE9F04161
:100D40003D4DE8683D4CC0064FF0FF374FF00006C0
:100D500002D4E868400708D5D4F80880A760FFF7F8
:100D600061FE404600F06CF82670E868800651D5B8
:100D70002020E860207888B3207801281CD02078D3
:100D8000022832D06068401E60606068A8B3A06826
:100D9000801CA060A06821696269090C41EA0241D7
:100DA000120C21616261296921F001012961216927
:100DB00089B2FFF729FE2DE06068401E6060606820
:100DC00068B1A068FFF7B8FFA06800F58060A06078
:100DD000296921F002012961FFF704FE1AE0384673
:100DE000A7602670FFF7A8FF14E0286920F0040030
:100DF00028610020FFF7A0FF0BE0FFE72078032821
:100E000016D020780428A06814D0801FFFF794FF24
:100E1000A76026702078002808D1286920F00700F4
:100E20002861286920F4A05028612676BDE8F08169
:100E3000A068EBE7801EE9E700200240E80C0020F4
:100E400070477047044910B50A68024202D0086032
:100E5000FFF7F7FF10BD0000140401402DE9F84F23
:100E6000DFF890A100220AF1040B144601274FF08D
:100E70000F090BF1040E00BF0B6807FA04F52B40B5
:100E8000AB4274D1DFF870C14E68A6EB0C08664522
:100E90002BD00DDC032E34D005DC36B3012E19D057
:100EA000022E2FD11BE0112E16D0122E2AD119E0BE
:100EB000B8F5881F19D006DCB8F5803F15D0B8F515
:100EC000801F1FD111E0B8F5001F0ED0B8F5041F28
:100ED00018D10AE0CA6815E0CA68121D12E0CA6893
:100EE00008320FE0CA680C320CE08A682AB1012A85
:100EF0004FF0080203D0456104E0042202E00561DE
:100F000000E00022FF2B01D8064601E000F10406B4
:100F10004FEA840501D9A5F12005D6F800C009FAE9
:100F200005F82CEA080C02FA05F54CEA050CC6F89F
:100F300000C04D68ED0057D5304DAE6946F0010652
:100F4000AE61AD6924F0030605F0010500952C4D56
:100F500006EB050CDCF80850A6074FEA167809FAEC
:100F600008F6B543274EB04202D1002610E03BE020
:100F7000254EB04201D101260AE0244EB04201D1F3
:100F8000022605E0224EB04201D1032600E00426ED
:100F900006FA08F62E43CCF808604D68DAF80060CF
:100FA000ED03554601D51E4300E09E432E604D687B
:100FB000DBF80060AD035D4601D51E4300E09E43B3
:100FC0002E604D68DEF80060ED02754601D51E43C7
:100FD00000E09E432E604D68AD020E4D2E6801D597
:100FE0001E4300E09E432E60641C102CFFF444AFAF
:100FF000BDE8F88F0004014000001110001002400D
:101000000000014000080140000C014000100140B8
:10101000001401400C0401408068084000D0012009
:1010200070470AB1016170470904FBE70148806815
:10103000704700003800002002488168027811449F
:101040008160704738000020074810B5016841F002
:1010500010010160032000F0B5F8002000F006F850
:1010600000F03EF8002010BD0020024000B501460F
:1010700087B00022192000F085F8192000F077F8D9
:101080001348816941F400618161806905A900F418
:1010900000600690684600F033FC00F061FC0D49EA
:1010A0000D4AB0FBF1F10D48491E0260416040F26B
:1010B000E7320021C0E90321816000F055FF10B143
:1010C000012007B000BD054800F06AFFF9E7000005
:1010D0000010024040420F00002C0140A80C0020EC
:1010E0001B4808B5816941F001018161816901F006
:1010F00001010091C16941F08051C161C0690022C4
:1011000000F0805000900F21901E00F03BF800226C
:101110000521012000F036F8012000F028F8002217
:101120000521042000F02EF8042000F020F805210D
:101130000022084600F026F8052000F018F80548BF
:10114000416821F0E06141F00071416008BD00009C
:10115000001002400000014000F01F0201219140F8
:101160004009800000F1E020C0F88011704700F0D5
:101170001F02012191404009800000F1E020C0F8E9
:1011800000117047F0B40E4B1B680C46C3F30223EA
:10119000C3F10705042D00D90425191D072901D223
:1011A000002300E0DB1E012606FA05F1491E21405E
:1011B00099409E40761E16403143F0BC01F077BC4A
:1011C0000CED00E0064900F0070208684FF6FF0347
:1011D000184040EA0220034A1043086070470000AC
:1011E0000CED00E00000FA0510B50C0605D501F085
:1011F0007F0100EB4110283003E000EB411000F5C7
:101200000A7099B232B101228272C180190C018137
:10121000002010BD002282728180F9E7704700EB48
:101220004112D0F85C04D26B03F05DB800EB4112C0
:10123000D0F85C04D2F83C2203F0AAB810B50446FA
:101240000A460B0601F07F0004EB401101D528315E
:1012500001E001F50A710870D009487094F828047B
:10126000012809D0012084F82804206803F074FCC8
:10127000002084F8280410BD022010BD70B50A4675
:101280000446090602F07F0003D504EB4011283123
:1012900003E004EB421101F50A7100258D7008701E
:1012A000D009487094F82804012809D0012084F856
:1012B0002804206803F0FEFC84F82854002070BD48
:1012C000022070BD70B504460D460E0601F07F0089
:1012D00004EB401101D5283101E001F50A710870D5
:1012E000E80948700A61CB7094F82804012809D0F5
:1012F000012084F82804206803F0FEFA002084F816
:10130000280470BD022070BD70B50C4601F07F0549
:1013100000EB4511C1E98F230022C1F8442281F876
:10132000292281F8285201F50A716206006803F04B
:101330001BFD002070BD70B50D460446090605F082
:101340007F0003D504EB4011283103E004EB451185
:1013500001F50A7101228A700870E809487094F852
:101360002804012807D084F82824206803F0D7FC3B
:10137000680602D006E0022070BD04F22C4120680D
:1013800003F096FC002084F8280470BD70B50C466C
:1013900001F07F0500EB4511C1E90F2300224A64EB
:1013A000012281F8292001F8285F6206006803F015
:1013B000DBFC002070BD10B50446006803F0BCFDE6
:1013C000000402D5204601F082FB206803F0B4FD42
:1013D00040050CD5206830F8441F21F4806101805D
:1013E000204600F0F5F80021204600F006F92068BC
:1013F00003F0A2FD400405D5206830F8441F21F415
:1014000080410180206803F097FD800405D52068A5
:1014100030F8441F21F400510180206803F08CFD56
:10142000C00414D5206830F8401F21F00401018069
:10143000206830F8401F21F008010180204600F0AC
:10144000D4F8206830F8441F21F4805101802068CE
:1014500003F072FD00051AD5206830F8401F41F0F6
:1014600008010180206830F8441F21F400610180E8
:10147000206830F8401F41F004010180206803F02B
:101480005BFDC043C00402D5204600F0EBF82068A5
:1014900003F052FD800508D5206830F8441F21F480
:1014A00000710180204600F0A4F8206803F044FD9C
:1014B000C00505D5206830F8441F21F480710180F3
:1014C00010BD00002DE9F04186B004004FF000058A
:1014D00004D094F82904002620B108E0012006B0C9
:1014E000BDE8F08184F82864204600F04BF8032022
:1014F00084F82904206803F0D4FB04F110011422BD
:1015000088466846FEF76AFE94E80F0003F022FB67
:101510000021206803F04EFD5FF0010704EB451049
:1015200080F8297000F8285F8581C67006614661E1
:101530006D1C86610F2DF1D35FF0000004EB4011AC
:1015400081F8296281F82802888681F82B62C1F827
:101550003862C1F83C62401CC1F840620F28EDD3EC
:10156000142241466846FEF739FE94E80F0003F066
:1015700089FB84F8246084F82974206803F080FBD8
:101580000020ACE708B500680F4988421AD10F481F
:10159000C16941F40001C161C069002200F400008A
:1015A000009006211320FFF7EDFD1320FFF7DFFD6C
:1015B000002206211420FFF7E5FDBDE808401420B5
:1015C000FFF7D5BD08BD0000005C004000100240E0
:1015D00010B504460121D0F85C0402F0A7FFD4F84E
:1015E0005C04BDE8104002F070BFD0F85C0402F06B
:1015F0008BBFD0F85C0402F08DBF10B5044690F8A4
:10160000280401280BD0012084F8280484F8241031
:10161000206803F0D1FC002084F8280410BD0220CB
:1016200010BDD0F85C2400F22C41104602F091BFAE
:1016300010B5044690F82804012810D0012084F841
:10164000280401462046FFF7E9FD206803F016FB59
:10165000206803F05EFC002084F8280410BD0220FE
:1016600010BD000010B50446D0F85C0402F0BEFFC7
:10167000A069002804D00348016841F00601016018
:1016800010BD000010ED00E07047000010B5054CE3
:101690002068C00304D5FFF7F7FF4FF480302060C7
:1016A00010BD0000140401402DE9F8430546007800
:1016B000354CC00754D0E0690026C00008D4E0696A
:1016C00040F08050E061E069012600F08050009019
:1016D0002E480168C90512D40168804641F4807122
:1016E0000160FFF7A3FC074605E000BFFFF79EFC83
:1016F000C01B642823D8D8F80000C005F6D5206A9E
:1017000010F4407021D0A98801F4407181421CD0AE
:10171000206A1F49012220F440700A6000220A60FA
:101720002062C00711D0FFF781FC074641F28838DC
:1017300008E000BFFFF77AFCC11B414502D9032036
:10174000BDE8F883206A8007F4D5206A696820F430
:101750004070084320621EB1E06920F08050E061D3
:101760002878800705D56068A96820F440400843C0
:1017700060602878C00605D56068E96820F48000BC
:10178000084360600020DBE700100240007000406A
:10179000400442422DE9F047DFF8548105460E46E9
:1017A000D8F8000000F00700B0420CD2D8F80010C2
:1017B00021F007013143C8F80010D8F8000000F00C
:1017C0000700B0426FD128684A4C810712D5400704
:1017D00003D5606840F4E06060602878000703D5B6
:1017E000606840F4605060606068A96820F0F000B4
:1017F000084360602878C00744D06868012816D084
:101800002168022816D0890700294CDA616821F086
:10181000030101436160FFF709FC6968074641F273
:10182000883001290ED00229814618D026E021688F
:101830008903E9E78901E7E7FFF7F8FBC11B4945A1
:1018400001D918E081466068C0F381000128F3D116
:1018500018E000BFFFF7EAFBC11B49450BD86068E1
:10186000C0F381000228F5D10CE000BFFFF7DEFBDA
:10187000C11B494502D90320BDE8F087606810F01C
:101880000C0FF3D1D8F80010404601F00701B14227
:101890000BD9016821F0070131430160006800F0B5
:1018A0000700B04201D00120E6E72878400705D5BF
:1018B0006068E96820F4E060084360602878000709
:1018C00006D56068296920F4605040EAC100606074
:1018D00000F056F86168084AC1F30311515CC84032
:1018E000064908600020FFF7C1FB0020C4E70000A4
:1018F000002002400010024030A8000844000020F0
:101900000F2202600C4A536803F0030343605368DC
:1019100003F0F0038360536803F4E063C36052682C
:101920004FF4E06303EAD20202610448006800F069
:1019300007000860704700000010024000200240CD
:101940000448054900684968044AC1F30221515C12
:10195000C8407047440000200010024040A8000822
:101960000448054900684968044AC1F3C221515C32
:10197000C8407047440000200010024040A8000802
:1019800012A185B00FC98DE80F0014A0144A006899
:1019900004905168134801F00C03042B10D0082B5D
:1019A0000ED1C1F38343C9031DF803000AD5516862
:1019B00004AAC1F34041515C0A4A5043B0FBF1F024
:1019C00005B0704708494843FAE7000002030405E0
:1019D000060708090A0B0C0D0E0F1010010200007B
:1019E0000010024000127A0000093D002DE9F84F76
:1019F00004460078B94DC00748D06868C0F381003C
:101A0000012807D06868C0F38100022809D16868FE
:101A1000C00306D52868800338D5606800286FD0D9
:101A200034E06068B0F5803F0BD010B1B0F5A02F66
:101A300011D0286820F480302860286820F48020A5
:101A400002E0286840F480302860606888B1FFF7C1
:101A5000EDFA064609E0286840F480202860F0E7A7
:101A6000FFF7E4FA801B642875D828688003F7D54F
:101A70000CE0FFF7DBFA064605E000BFFFF7D6FAF9
:101A8000801B6428F0D828688003F7D42078944E0F
:101A900080074FF001094FF000083BD5686810F04F
:101AA0000C0F07D06868C0F38100022809D168686C
:101AB000C00306D42868800714D5206901281FD1E7
:101AC00010E02069B0B1C6F80090FFF7AFFA074602
:101AD00005E000BFFFF7AAFAC01B0228C4D8286897
:101AE0008007F7D52868616920F0F80040EAC10056
:101AF00028600FE0C6F80080FFF798FA074606E076
:101B0000E9E000BFFFF792FAC01B022823D828683B
:101B10008007F7D4207800072CD57248A169D9B185
:101B2000C0F80090FFF782FA074604E0FFF77EFA5C
:101B3000C01B02280FD8686A8007F7D56A484FF49F
:101B4000FA510068B0FBF1F0009000BF0098411E10
:101B50000091FAD20EE080E0C0F80080FFF766FA4C
:101B6000074604E0FFF762FAC01B022875D8686ACE
:101B70008007F7D42078400760D5E8690027C000C7
:101B800008D4E86940F08050E861E869012700F076
:101B90008050009055480168C90513D401688346F8
:101BA00041F480710160FFF741FA824606E000BF10
:101BB000FFF73CFAA0EB0A0064284ED8DBF80000DF
:101BC000C005F5D5E06801280AD008B1052813D072
:101BD000286A20F001002862286A20F0040002E050
:101BE000286A40F001002862E06841F2883B98B121
:101BF000FFF71CFA82460BE0286A40F004002862D6
:101C0000EEE700BFFFF712FAA0EB0A0159455AD8D8
:101C1000286A8007F6D50CE0FFF708FA824605E04F
:101C2000FFF704FAA0EB0A0159454CD8286A80074F
:101C3000F6D41FB1E86920F08050E861E06988B30C
:101C40006968C1F38101022945D00228C6F8608085
:101C500004D0FFF7EBF9044638E034E0FFF7E6F98B
:101C6000074604E0FFF7E2F9C01B02282BD82868DA
:101C70008001F7D4206AB0F5803F05D16868A1687B
:101C800020F4003008436860D4E90801084369681B
:101C900021F4741108436860C6F86090FFF7C6F934
:101CA000044606E015E000BFFFF7C0F9001B02285C
:101CB00009D828688001F7D50BE000BFFFF7B6F917
:101CC000001B022802D90320BDE8F88F2868800194
:101CD000F4D40020F8E70120F6E7000000100240ED
:101CE0000000424280044242440000200070004054
:101CF0007047000038B504460068426881684B06AA
:101D000005D4CB0703D0530601D5216C04E08B0723
:101D100007D5130605D5616C01B02046BDE83040FB
:101D2000084711F0600F3FD093063DD54B060AD50A
:101D300094F85130032B34D0636D43F00403636592
:101D4000C36883680093890609D5616D41F001017C
:101D5000616581680091016821F040010160606D5A
:101D6000002821D02068416821F0E0014160012075
:101D700084F85100900718D02068416821F00301D1
:101D800041600C4DE06C18B14563E06CFEF778FEE5
:101D9000A06C002808D04563A06CBDE83840FEF771
:101DA0006FBEC1688068009038BD2046FFF7A0FF75
:101DB00038BD00001936000870B5040005D00025B4
:101DC000A56294F8510010B104E0012070BD2046D6
:101DD00000F034F8022084F851002068016821F0F6
:101DE00040010160D4E901010843D4E90312114321
:101DF000084361690843218B01F400710843E169DC
:101E00000843216A0843A16A084321680860A06961
:101E1000042101EA1040616A084321684860216892
:101E2000E06A08612068C16921F40061C1616565EB
:101E3000012084F85100002070BD0000F0B585B08D
:101E400000240646009401940294039400682C49EF
:101E5000884253D12B48816941F480518161816965
:101E600001F480510491816941F00401816180692C
:101E7000254D00F004000490A02000900220019065
:101E80000320039069462846FEF7E8FF4020CDE98D
:101E90000004694628460294FEF7E0FF1C4D1B48EB
:101EA0008027C5E90004C5E902472C616C61AC617B
:101EB0002846EC61FEF7DAFE08B1FEF790FDF56406
:101EC0006E62134D11484435143001C5102091C580
:101ED0000F4845F8104944306C61AC61EC61FEF785
:101EE000C5FE08B1FEF77BFDB56400220521232065
:101EF0006E62FFF747F92320FFF739F905B0F0BD0F
:101F00000030014000100240000801401C00024067
:101F1000800200207047704730B590F83C20012ABD
:101F200020D0012280F83C20022380F83D30036855
:101F30005C6824F070045C6003685C680D682C4386
:101F40005C6003689C6824F080049C6003689C6863
:101F500049680C439C6080F83D20002180F83C10CB
:101F6000084630BD022030BD10B5040003D094F8FF
:101F70003D0010B107E0012010BD002084F83C00B6
:101F8000204600F00CF8022084F83D00211D206856
:101F900001F01AFD012084F83D00002010BD7047BB
:101FA0000168CA6842F00102CA600068016841F035
:101FB0000101016000207047704770B50446006859
:101FC00001694FF00005C943890715D4C168C943A9
:101FD000890711D4E91E01610120207720688069FA
:101FE0008007204602D0FFF7E7FF04E000F0BEF8CC
:101FF000204600F05DF9257720680169C94349074B
:1020000017D4C168C943490713D46FF004010161B3
:10201000022020772068806910F4407F204602D09B
:10202000FFF7CAFF04E000F0A1F8204600F040F9F5
:10203000257720680169C943090716D4C168C943D7
:10204000090712D46FF0080101610420207720688D
:10205000C0698007204602D0FFF7AEFF04E000F021
:1020600085F8204600F024F9257720680169C943E6
:10207000C90617D4C168C943C90613D46FF010014B
:102080000161082020772068C06910F4407F204655
:1020900002D0FFF791FF04E000F068F8204600F05E
:1020A00007F9257720680169C943C90708D1C168C4
:1020B000C943C90704D1891E0161204600F012F905
:1020C00020680169C943090609D4C168C9430906E2
:1020D00005D46FF0800101612046FFF71BFF2068E7
:1020E0000169C943490609D4C168C943490605D4F1
:1020F0006FF040010161204600F0FEF820680169A0
:10210000C94389060BD4C168C943890607D46FF057
:10211000200101612046BDE87040FFF7FCBE70BDA4
:1021200000B585B0002100910191029103910068F2
:102130000B49884212D10B48816941F00801816145
:102140008069694600F0080004904FF40070009028
:102150000220019003900448FEF780FE05B000BD08
:102160000008004000100240000C0140704770B5AC
:10217000044690F83C000D4601280DD0012684F855
:102180003C60022084F83D0042B1042A18D0082A9D
:102190002AD00C2A4DD139E0022070BD206801F010
:1021A00055FC2068816941F00801816120688169DE
:1021B00021F004018161206881692A69114311E0DD
:1021C000206801F06BFC2068816941F40061816145
:1021D0002068816921F480618161206881692A69B0
:1021E00041EA0221816124E0206801F083FC20683B
:1021F000C16941F00801C1612068C16921F0040191
:10220000C1612068C1692A69114311E0206801F0A9
:102210009DFC2068C16941F40061C1612068C16909
:1022200021F48061C1612068C1692A6941EA022103
:10223000C16184F83D60002084F83C0070BD10B599
:10224000040003D094F83D0010B107E0012010BD58
:10225000002084F83C00204600F00CF8022084F8AE
:102260003D00211D206801F0AFFB012084F83D00F6
:10227000002010BD08B500680B49884212D10B48F8
:10228000C16941F00401C161C069002200F004008D
:10229000009005211E20FEF775FFBDE808401E20B6
:1022A000FEF765BF08BD00000008004000100240B6
:1022B0007047000010B504460068012201F0BAFB27
:1022C00007492068884203D1416C41F400414164D0
:1022D0002068016841F001010160002010BD00008C
:1022E000002C014000680349884201D1FEF7A4BEDA
:1022F00070470000002C01407047704770B50268BD
:1023000004461068D168536910F00F0F51D003F0E4
:10231000010501F4907635435DD0C20705D0CA05AA
:1023200003D5E26B42F00102E263420705D5DA070A
:1023300003D0E26B42F00202E263820705D5DA07BE
:1023400003D0E26B42F00402E263020705D5DA072C
:1023500003D0E26B42F00802E263E26B002A34D061
:10236000800604D5880602D5204601F071FC20685D
:102370004069E16BC0F3801001F008010143204681
:1023800024D001F04EFC2068416949061AD5416904
:1023900021F040014161606BA0B11B494163606B5A
:1023A000FEF76EFB002810D0606B416BBDE87040FB
:1023B000084783060FD58B060DD52046BDE8704033
:1023C00001F046BC2046FFF798FF70BDFFF795FF70
:1023D0000020E06370BD030606D50B0604D5204639
:1023E000BDE8704001F038BD4006F3D54806F1D590
:1023F000D168204621F04001D160202184F83910B5
:1024000000F0E6F870BD0000913B000870B50400D4
:1024100004D094F83900002510B106E0012070BD09
:1024200084F83850204600F023F8242084F839003E
:102430002068C16821F40051C160204601F054FCBD
:102440002068016921F4904101612068416921F00F
:102450002A0141612068C16841F40051C160E5630F
:10246000202084F8390084F83A00002070BD000074
:10247000F0B585B0002406460094019402940394BC
:1024800000682D49884254D12C48816941F480412B
:102490008161816901F480410491816941F0040105
:1024A00081618069264D00F0040004904FF40070B3
:1024B0000090022001900320039069462846FEF711
:1024C000CDFC2815CDE90004694628460294FEF7A4
:1024D000C5FC1D4D1B48802701C5102091C51A4819
:1024E00045F810496C61AC61EC61FEF7BFFB08B1C7
:1024F000FEF775FA35636E62134D12484435143099
:10250000C5E90004C5E9024720202C61C5E9054062
:102510002846EC61FEF7AAFB08B1FEF760FA756386
:102520000022052125206E62FEF72CFE2520FEF7F5
:102530001EFE05B0F0BD0000003801400010024052
:10254000000801404400024088030020704700005A
:1025500070B5044690F83900202830D169B362B3D1
:1025600094F8380001282AD0012084F8380021622C
:10257000A284E2840025E563212084F83900236BDE
:1025800010489862236B1048D862236B0F48186379
:10259000206B134645632668206B321DFEF794FBC3
:1025A00021686FF04000086084F838502068416965
:1025B00041F080014161002070BD012070BD02200A
:1025C00070BD0000EB3B0008193C0008A13B00086F
:1025D00070477047FEE703F0B1B810B50720FEF76B
:1025E000BBFD0820FEF7B8FD0920FEF7B5FD0A2067
:1025F000FEF7B2FD1720FEF7AFFDBDE81040282022
:10260000FEF7AABD154808B5416941F001014161D5
:102610004069002200F00100009005210C20FEF727
:10262000B1FD0C20FEF7A3FD002205210D20FEF7D1
:10263000A9FD0D20FEF79BFD002205210E20FEF7CF
:10264000A1FD0E20FEF793FD002205210F20FEF7CD
:1026500099FDBDE808400F20FEF789BD001002403B
:1026600000B585B0142206496846FDF7B7FD002184
:10267000684603F013F90349086005B000BD000087
:102680001CA8000800000020F0B585B000200090D4
:102690000190029003904848816941F010018161E6
:1026A000816901F010010491816941F0200181618B
:1026B000816901F020010491816941F00401816187
:1026C000816901F004010491816941F0080181618F
:1026D00080693A4E00F00800049000221021304634
:1026E000FEF79FFC4FF460400325CDE900056946E5
:1026F0003348FEF7B3FB4FF48770CDE90005694618
:102700003046FEF7ABFB1020009001200224CDE9FB
:102710000104694630460394FEF7A0FB4FF2011016
:10272000CDE90005274F69463846FEF797FB264D51
:1027300040F6FE40CDE90005694602943846FEF7B2
:102740008DFBA003CDE90005694602943046FEF7F3
:1027500085FB002205210720FEF714FD0720FEF768
:1027600006FD002205210820FEF70CFD0820FEF7DB
:10277000FEFC002205210920FEF704FD0920FEF7DA
:10278000F6FC002205210A20FEF7FCFC0A20FEF7D9
:10279000EEFC002205211720FEF7F4FC1720FEF7BF
:1027A000E6FC002205212820FEF7ECFC2820FEF79D
:1027B000DEFC05B0F0BD0000001002400008014042
:1027C00000100140000C014000003110104810B50D
:1027D0000E4901604FF48271416000210222816044
:1027E000C0E9031201224261520282610822C0E95B
:1027F0000721416281620A21C162FFF7DDFA0028E8
:1028000003D0BDE81040FEF7EAB810BD003001402B
:102810002802002010B58AB0002407941C216846C5
:102820000894FDF7F4FC1648144901604721C0E9FB
:1028300001146321C0E903148461FFF700FD08B1AE
:10284000FEF7CDF8079407A90D480894FFF764FB3D
:1028500008B1FEF7C4F86020CDE900040220029020
:102860000C22694604940648FFF781FC08B1FEF784
:10287000B6F80348FFF754FC0AB010BD000800404A
:10288000080300200C4810B50A4901604FF4E131FB
:102890004160002181600C22C160C0E904128161A5
:1028A000C161FFF7B3FD002803D0BDE81040FEF77B
:1028B00096B810BD003801404803002010B5002232
:1028C0000649074801F0DAFC0649054801F0BBFE5D
:1028D000BDE81040024801F003BF000004000020E2
:1028E00010040020C0000020FEE70000F8B500241E
:1028F0008DF801408DF8020017460E4605468DF80A
:1029000003408DF8004004226946104801F054FC51
:102910000F4A107901280BD1906A0E4900EB400351
:10292000012ECC5419444D700CD08C70401C906218
:10293000907A094992F9062001F83200384606F0EB
:102940005FFFF8BD01238B70F0E70000100400204A
:1029500080010020E02D002050450020F8B54042C5
:1029600045B28DF8015000248DF8024017460E46FE
:102970008DF803408DF80040042269460F4801F0AD
:102980001BFC0F48017901290BD1816A0D4A01EB2B
:102990004103012ED5541A4454700CD09470491C34
:1029A0008162817A084A90F9060002F830103846B0
:1029B00006F026FFF8BD01239370F0E71004002015
:1029C00080010020E02D002050450020F8B50024B3
:1029D0008DF801008DF8024017460E4605468DF829
:1029E00003408DF8004004226946104801F0E4FBE2
:1029F0000F48017901290BD1816A0E4A01EB41038D
:102A0000012ED5541A4454700CD09470491C816224
:102A1000817A094A90F9060002F83010384606F02B
:102A2000EFFEF8BD01239370F0E7000010040020D2
:102A300080010020E02D002050450020F8B54042E4
:102A4000002445B28DF801408DF8025017460E461D
:102A50008DF803408DF80040042269460F4801F0CC
:102A6000ABFB0F48017901290BD1816A0D4A01EBBB
:102A70004103012ED4541A4455700CD09470491C53
:102A80008162817A084A90F9060002F830103846CF
:102A900006F0B6FEF8BD01239370F0E710040020A5
:102AA00080010020E02D00205045002070470907DC
:102AB000090E002806DA00F00F0000F1E02080F88F
:102AC000141D704700F1E02080F8001470472DE9D4
:102AD000FC5F4FF000080446ADF80480ADF80080BC
:102AE00048F60F7B4FF002094FF4806692E1BDF883
:102AF000041011F00F072BD030F82710ADF800109C
:102B0000BDF80010090478D530F8272040F68F7101
:102B10000A4020F8272004EB471595F8320205F506
:102B20000A750028206869D0297830F821205204DD
:102B30007DD5B0F8503009EBC101194406EB4101D5
:102B4000415AC1F309015FEA010A71D0EA88D0E075
:102B5000BDF80410C9062AD4018801EA0B010180DE
:102B6000206804F12805B0F850202B7809EBC30148
:102B7000114406EB4101405AC0F309006064E16B67
:102B80000844E06300212046FEF749FB94F8240046
:102B90000028ABD0A8690028A8D194F824002168A7
:102BA00040F08000A1F84C0084F8248032E10188D4
:102BB00004F50A75ADF80010BDF8001009051ED522
:102BC000B0F850302978062202EBC101194406EB17
:102BD0004101405A04F22C41C0F30903EB61AA8879
:102BE000206802F0ADF92068018840F68F7211402C
:102BF00001802046FEF715FD0CE1A0E055E0BDF890
:102C000000100904D2D5028840F68F710A40028074
:102C10002068B0F850302978062202EBC10119442F
:102C200006EB4101405A83059B0DEB6101E051E049
:102C300063E008D0AA886969206802F081F9E9692F
:102C400068690844686100212046FEF7EFFA2068B1
:102C5000B0F85010891D06EB4101014428693E2857
:102C60000CD9C0F34F12C00601D1521E92B24FF6DA
:102C7000FF7000EA822040F4004009E0C0F34F02F8
:102C8000C00701D0521C92B24FF6FF7000EA8220BA
:102C90000860216808884BF68F72104080F440501D
:102CA00048F2800210430880B4E0B0F850202B783E
:102CB000062101EBC301114406EB4101415AC1F366
:102CC00009015FEA010A24D0AA885346696902F023
:102CD00037F91EE0B0F85020062303EBC101114480
:102CE00006EB4101415AC1F309015FEA010A04D030
:102CF0002A895346696902F023F92978206830F857
:102D0000213048F68F72134048F2C002134320F876
:102D10002130E96901EB0A00E861696901EB0A0207
:102D20006A61AB6913B12869504504D929782046F6
:102D3000FEF77CFA03E029782046FEF7E5FABDF8B5
:102D40000000000666D5206804EB471530F8271010
:102D500001EA0B0120F8271095F8320028350028E9
:102D6000206812D0297830F82120B0F8503052066F
:102D70001ED509EBC101194406EB4101405A8305F8
:102D80009B0DEB6124D0EA881EE0B0F850302A7821
:102D900009EBC201194406EB4101405A83059B0D22
:102DA000EB6121D0AA886969206802F014F91BE060
:102DB000062202EBC101194406EB4101405A83058A
:102DC0009B0DEB6104D02A896969206802F003F940
:102DD0002978206830F8212048F68F731A404CF289
:102DE00080031A4320F821202068B0F850202B7867
:102DF00009EBC301114406EB4101405AC0F309003D
:102E0000E86169690A186A612978AB69204663B18B
:102E1000FEF7BCFA2068B0F84410ADF804100904BD
:102E20003FF565AE0020BDE8FC9FFEF7F8F9F1E73D
:102E3000FEF72CBC08B5894C894D4FF0FF384FF494
:102E400000664FF4805A4FF4005B4FF032090027C0
:102E50000122CDF8008000231146606A06F07AFF57
:102E60000021606A06F002FFB0420FD1C5F8009061
:102E7000322006F0C5FC3146606A06F0F7FEE078C5
:102E8000012802D10A20FDF729FBE5E050450CD1CD
:102E9000C5F800900A2006F0B3FC5146606A06F0BF
:102EA000E5FEE06906F054FED6E0584519D1C5F8B4
:102EB00000900A2006F0A4FC5946606A06F0D6FE8F
:102EC000A078012809D1674800F0F0F8664800F0C2
:102ED00023F900F0CDF86070A770E06906F0B0FD4E
:102EE000BAE0B0F5804F14D0B0F5806F1AD0022848
:102EF00029D0042835D0082841D010284DD080286A
:102F000059D0B0F5807F62D020286BD040287CD08B
:102F1000A2E0C5F80090322006F072FC0120207279
:102F200081035BE0C5F80090322006F069FC4FF4A5
:102F30008061606A06F09AFEE078012802D1207173
:102F4000FDF798FA88E0C5F800900221606A06F063
:102F50008DFEE07801287FD10A220021FFF736FD9F
:102F60007AE0C5F800900421606A06F07FFEE07800
:102F7000012871D10A220021FFF7F0FC6CE0C5F8AE
:102F800000900821606A06F071FEE078012863D1A4
:102F90000A220021FFF752FD5EE0C5F800901021E3
:102FA000606A06F063FEE078012855D10A2200210C
:102FB000FFF79CFC50E0C5F80090322006F020FCA2
:102FC0008021606A06F052FE0120E07044E0C5F8FE
:102FD0000090322006F014FC4FF48071606A06F015
:102FE00045FE39E0C5F80090322006F009FC2021AA
:102FF000606A06F03BFEE079012809D1607801287B
:1030000001D0401E6070C0B200E009E000F00CFB8F
:103010006089012801D8012000E0401E60811BE08A
:10302000C5F80090322006F0EBFB4021606A06F004
:103030001DFEE079012805D16078401CC0B26070A7
:1030400000F0F2FA6089074A401C608194F906108A
:1030500002F83100491CA1712F60F9E680010020BF
:103060004008004050450020E02D0020704700003F
:1030700038B50CA10C4800F0B1F900231E2209A1BB
:10308000094800F01BF90446014601236A46064838
:1030900000F09AF92146044800F0EEF89DF800008F
:1030A00038BD000070726F006026002030B5054604
:1030B000A7B00023182215A1164800F0FFF804005D
:1030C00006D500231E2211A1124800F0F7F804468D
:1030D000014696236A460F4800F076F921460D48CE
:1030E00000F0CAF80020694600EB40028B5C05F84E
:1030F000303053185A789B7843EA022205EBC0031C
:10310000401C5A603228EFDB27B030BD7370656514
:1031100064000000602600202DE9F041ADF5187D27
:10312000064600244FF416786D460F2C0FD2DFE8C8
:1031300004F0080A4547494B4D4F51535557595BC9
:103140005D002BA100E02CA196A8FDF78CF80023D0
:10315000182296A92A4800F0B1F8070006D50023E6
:103160001E2296A9264800F0A9F8074601464346C4
:103170006A46234800F028F93946214800F07CF8D7
:1031800004EBC401002001EB041200BF00EB40017E
:1031900000EBC2036F5C03EB43032944F754334451
:1031A0004F785F708978401C9970C828EEDB641CEA
:1031B0000F2CBADB0DF5187DBDE8F08111A1C3E736
:1031C00012A1C1E713A1BFE714A1BDE715A1BBE799
:1031D00016A1B9E717A1B7E718A1B5E719A1B3E799
:1031E0001AA1B1E71BA1AFE71CA1ADE71DA1ABE799
:1031F0007472616365300000747261636531000050
:10320000602600207472616365320000747261632D
:103210006533000074726163653400007472616329
:103220006535000074726163653600007472616315
:103230006537000074726163653800007472616301
:1032400065390000747261636531300074726163C6
:10325000653131007472616365313200747261638B
:103260006531330074726163653134000148FEF7E3
:1032700041BD00002802002070B50D460446C06F15
:103280000C49884201D00C480EE094F8740068B1F3
:103290002946204603F054FA002805DB294620463B
:1032A00003F032FA002800DA606470BD024818307A
:1032B000FAE7000015030920D8D8FFFF2DE9F041F7
:1032C00088460446C06F3E4986B01F46164688426F
:1032D00001D03C4809E094F8740050B14046FCF736
:1032E000ADFF1F2808D937480C38606406B0BDE828
:1032F000F08134481830F8E7424602A9204603F02E
:103300005FF9002802DA606400B2EFE703AA4146E1
:10331000204604F0BDFE0546700701D4002D40DBB9
:1033200015B94420B0431CD0700725D542F2127065
:10333000C54221D1002204A9204604F04DF9050020
:103340002FD403A90120CDE9000100234246BDF896
:103350001010204604F0EAFD050022D426F00206F3
:103360000CE00298174DB0F90410AD1F204603F091
:10337000CBF928466564B9E7002D12DB3346009788
:10338000BDF80C102046029A05F02CF9050008D46F
:10339000B0070FD500221146029805F07DFA05000E
:1033A00008D50298B0F90410204603F0ADF928B210
:1033B00065649BE7029800218161B0F9040095E7FC
:1033C00015030920D8D8FFFF10B503F06DFF42F2B6
:1033D0001371C84200D1002010BD00003EB50D465B
:1033E0000446C06F2849884201D0284814E094F868
:1033F000740038B12846FCF721FF1F2805D923485F
:103400000C3809E02148183006E0002201A92046C6
:1034100003F0D6F8002801DA60643EBD02AA29460E
:10342000204604F035FE050007D00198B0F90410DD
:10343000204603F069F9002D21DB002003460090AF
:10344000BDF808102046019A05F0CCF8050007D019
:103450000198B0F90410204603F056F9002D0EDB58
:1034600001220021019805F017FA05000AD0019801
:10347000B0F90410204603F047F9002D02DA28467F
:1034800065643EBD00203EBD15030920D8D8FFFF6E
:103490002DE9FC4190460546C06F5D4A1E469042AC
:1034A00001D05C488CE095F8740060B101AA284610
:1034B00003F010F9002805DB0199888BC20605D4BA
:1034C0005448C01C7CE05348183079E0C00704D051
:1034D0008868421C00D1002088618C69086A20B984
:1034E000284602F011FF0199086201998A8BD007E2
:1034F0000BD08C68601C00D10024086A28B1C36816
:10350000008A1844A04200D30446900675D4E869A6
:103510000A6AB04256DDFAB1D368A34208D8178AC6
:103520001F44A74204D31F1804EB060C674520D2A2
:10353000178A0097EF6D527814303F6902FB0072D2
:103540002846143203F000FF07460198016A284616
:1035500002F03AFE002F4CDB2846019902F06EFE85
:103560000199086220B3C4600A6A00201082086AC8
:10357000F0B10198006AC1684278641AE96DE8699F
:103580000969143002FB00101430204432464146D1
:10359000FCF724FE0199A2190B6A188A904200D800
:1035A000104618828869304488613046BDE8FC8145
:1035B000234642460096284603F0C6FE002821DA3C
:1035C0006864F3E7C2B1138A0093EB6D5778143047
:1035D0001B6907FB0030D36800F11402284603F092
:1035E000B3FE07460198016A284602F0EDFD002F60
:1035F00003DA38466F64D9E7FFE723464246009670
:103600000199D8E701998A6932448A61CEE70000BE
:1036100015030920D8D8FFFF10B5406A0021C187E3
:10362000C186FEF765FB10BD31B50BA10B48FFF756
:10363000D5FE00231E2208A10848FFF73FFE0446DE
:10364000014601236A460548FFF722FF2146034849
:10365000FFF712FE38BD000070726F006026002078
:10366000FFF72CF9012002F00DF9FBE7634C012173
:10367000206A02F03DF9624D40F2051A40F202382C
:1036800040F202294FF4806640F2026B012700BF2E
:1036900002F064F8E08150451CD1A089C04380B29B
:1036A000A0F57F41A081FE3908D10121606A06F0B2
:1036B0000AFB4FF40051606A06F005FBA08901285F
:1036C00008D10121606A06F0FEFA4FF48051606A69
:1036D00006F0F9FAE089B0F5837F09D10121606A2B
:1036E00006F0F1FA4FF48041606A06F0ECFAA78127
:1036F000E189414508D10121606A06F0E4FA4FF4FE
:103700000061606A06F0DFFA31462846FDF784FC66
:10371000012807D10121606A06F0D5FA0421606A08
:1037200006F0D1FAE189494507D10121606A06F026
:10373000CAFA3146606A06F0C6FAE189594507D1EE
:103740000121606A06F0BFFA8021606A06F0BBFAC8
:10375000E189A1F5C060033809D10121606A06F052
:10376000B2FA4FF48071606A06F0ADFAE77040215A
:103770002846FDF751FC012807D10121606A06F0B7
:10378000A2FA1021606A06F09EFA20212846FDF771
:1037900043FC012807D10121606A06F094FA082150
:1037A000606A06F090FA10212846FDF735FC0128E2
:1037B00007D10121606A06F086FA0221606A06F0EC
:1037C00082FAE189A1F5A060023807D10121606A7F
:1037D00006F079FA4021606A06F075FAE189A1F5F0
:1037E000806002387FF454AF0121606A06F06BFA02
:1037F0002021606A06F067FA4AE700008001002095
:10380000000C0140FEB505F029FF1D4800220121F2
:103810000068029002A802F059F81A4C206210B910
:1038200019A001F0EDFB06F041FA6062154802258F
:103830001430CDE90050EE010023324618A11B4898
:1038400006F0A8FD0F4800231830CDE9005032469D
:1038500017A11C4806F09EFD0A4903201C31CDE942
:1038600000010023802218A11B4806F093FDE069A7
:1038700006F06EF9206905F0E9FF05F00FFFFEBDC7
:1038800048A80008800100206F7354696D65724379
:103890007265617465204661696C6564210D0A007A
:1038A00050726F636573735461736B00352E00083B
:1038B00053746172744B65794374726C5461736BA9
:1038C000000000006D3600084175746F4D6F766919
:1038D0006E675461736B00006504000810B55020DA
:1038E00080F31188BFF34F8FBFF36F8F06F092FD07
:1038F00018B104494FF080500860002080F311880F
:1039000010BD000004ED00E030B593B028216846FA
:10391000FCF77DFC14210AA8FCF779FC00240120A7
:103920000F9410941194010412948DE813000490E4
:103930004FF4E010CDE90810022507956846FEF720
:1039400055F80F20CDE90A056802CDE90C400221A7
:103950000AA80E94FDF71EFF10200F9012940FA8D6
:10396000FDF7A2FE13B030BD0D48016841F0010122
:10397000016041680B4A1140416001680A4A1140E8
:103980000160016821F480210160416821F4FE0199
:1039900041604FF41F0181600449C0030860704713
:1039A000001002400000FFF8FFFFF6FE08ED00E007
:1039B0000148FEF702BB0000A80C00200148FEF7FA
:1039C000FCBA000008030020F0B50268164B174C43
:1039D000174D4FF08047984205D0B84203D0A0421F
:1039E00001D0A84203D122F070064A6832439842BF
:1039F00005D0B84203D0A04201D0A84203D122F49E
:103A00004074CA68224322F080044A69224302605B
:103A10008A68C2620A688262984201D109690163B8
:103A200001214161F0BD0000002C01400004004074
:103A30000008004010B50123046A8B409C430462D7
:103A4000036A8A401343036210BD000030B5026A66
:103A500022F001020262026A4368846924F073055D
:103A60000C682C4322F002058A682A430A4DA842BA
:103A70000BD122F00805CA6823F440732A434D692C
:103A800022F004021D438B692B4343608461496823
:103A90004163026230BD0000002C014030B5026A73
:103AA00022F010020262026A436884690D6824F4FD
:103AB000E64444EA05248D6822F0200242EA051219
:103AC0000B4DA8420ED1CD6822F0800242EA0512C9
:103AD0004D6923F4406343EA85038D6922F0400277
:103AE00043EA85034360846149688163026230BDB3
:103AF000002C014030B5026A22F480720262036A2F
:103B00004268C46923F4007324F073050C682C43E5
:103B10008D6843EA05230C4DA8420ED1CD6823F4ED
:103B2000006343EA05234D6922F4405242EA05123C
:103B30008D6923F4806342EA05124260C4614968DA
:103B4000C163036230BD0000002C014030B5026A41
:103B500022F480520262046A4268C3690D6823F449
:103B6000E64343EA05238D6824F4005444EA05340F
:103B7000064DA84204D14D6922F4804242EA8512E2
:103B80004260C36149680164046230BD002C014099
:103B900010B5406A0021C185C184FEF7AEFB10BD9F
:103BA00070B5446A2068406994F83910C0F3C010B9
:103BB0000025212904D118B1E584204600F03FF802
:103BC0002068406994F83A10C0F38010222904D18B
:103BD00018B1E585204600F024F8E06B40F01000B5
:103BE000E0632046FEF789FB70BD10B50146406AD0
:103BF0000968096889060CD40021C18401684A69F2
:103C000022F080024A610068C16841F04001C16051
:103C100010BDFEF7DDFC10BD10B5406AFEF7D9FC03
:103C200010BD0168CA6822F49072CA6001684A69CE
:103C300022F001024A61202180F83A1070470168A1
:103C4000CA6822F0C002CA60202180F8391070478B
:103C500010B590F83A10222901D0022010BD8168D9
:103C6000B1F5805F11D00169002901681FD0496852
:103C700001F07F03816A4A1C82620B70C18D491E6C
:103C80000904090CC18518D02BE00269816A002A59
:103C90000268526805D0D2B20A80816A491C8162EA
:103CA000ECE7C2F308020A80816A891CF7E74A68D8
:103CB000816A4B1C83620A70E0E70168CA6822F0DF
:103CC0002002CA600168CA6822F48072CA60016872
:103CD0004A6922F001024A61202180F83A10FEF779
:103CE00035FC002010BD00002DE9F04104460068BD
:103CF0000169E26821F44051114301612169A06822
:103D00000843616908432168CA6841F20C639A4319
:103D10000243CA6020684169A26921F440711143DD
:103D200041614C4920686425322688423CD1FDF728
:103D300017FE00EBC00101EB001061688900B0FBC9
:103D4000F1F7FDF70DFE00EBC00101EB001061681B
:103D5000B0468900B0FBF1F0B0FBF5F06FF0180150
:103D6000484307EB800106EB0110B0FBF5F000F0D3
:103D7000F006FDF7F5FD00EBC00101EB00106168F6
:103D80008900B0FBF1F0B0FBF5F006EB0016FDF793
:103D9000E7FD00EBC00101EB001061688900B0FB9A
:103DA000F1F7FDF7DDFD3BE0FDF7CAFD00EBC001DB
:103DB00001EB001061688900B0FBF1F7FDF7C0FD71
:103DC00000EBC00101EB00106168B0468900B0FB58
:103DD000F1F0B0FBF5F06FF01801484307EB8001FC
:103DE00006EB0110B0FBF5F000F0F006FDF7A8FDC2
:103DF00000EBC00101EB001061688900B0FBF1F03D
:103E0000B0FBF5F006EB0016FDF79AFD00EBC001E4
:103E100001EB001061688900B0FBF1F7FDF790FD40
:103E200000EBC00101EB001061688900B0FBF1F00C
:103E3000B0FBF5F06FF01801484307EB800108EB89
:103E40000110B0FBF5F0216800F00F0030448860ED
:103E5000BDE8F0810038014090F83910212901D0E7
:103E6000022070478168B1F5805F016A0BD04A1C5F
:103E70000262026809785160C18C491E0904090C6C
:103E8000C1840ED017E009880268C1F308015160AF
:103E900001690029016A02D0491C0162ECE7891C12
:103EA000FBE70168CA6822F08002CA600068C16846
:103EB00041F04001C1600020704700000148FEF75A
:103EC0001DBA00004803002010B5D0F81422526833
:103ED0009047002010BD134610B50A46002100F09F
:103EE000E4FA002010BD134610B50A46002100F088
:103EF00086FB002010BD10B50446802100F056FB63
:103F00002046BDE81040002100F050BB10B505214F
:103F10000023C0F8F4111A46194600F0C6FA002032
:103F200010BD10B502238261C0F8F431C26113469E
:103F30000A46002100F063FB002010BD10B50421EB
:103F40000023C0F8F4111A46194600F058FB00206F
:103F500010BD000010B50A46024903A000F0D4F8D5
:103F6000004810BDA80A002048494420436F6E66EF
:103F70006967000012200880004870472400002074
:103F800010B50A46024903A000F0BEF8004810BD73
:103F9000A80A002048494420496E7465726661632E
:103FA00065000000042008800048704720000020C1
:103FB00010B50A46024903A000F0A6F8004810BD5B
:103FC000A80A002053544D6963726F656C65637471
:103FD000726F6E696373000010B50A46024903A050
:103FE00000F092F8004810BDA80A002053544D3349
:103FF000322048756D616E20696E7465726661630A
:104000006500000010B50A46024903A000F07CF8E4
:10401000004810BDA80A0020303030303030303039
:104020003030314100000000F8B5044648880D46A4
:10403000010A08294BD2DFE801F04A0409174A4A6D
:104040004048D4F81012207C0A6832E0207C022616
:104050000028D4F8140205D0C16A68468847014692
:10406000467041E0816AF8E7C0B206282FD2DFE847
:1040700000F003080D12171CD4F81012207C4A68B7
:1040800017E0D4F81012207C8A6812E0D4F81012DD
:10409000207CCA680DE0D4F81012207C0A6908E080
:1040A000D4F81012207C4A6903E0D4F81012207C66
:1040B0008A6969469047014616E0207C38B9D4F8F1
:1040C0001402416B68468847F5E7207C20B12946F9
:1040D0002046FFF710FFF8BDD4F81402016B6846C4
:1040E0008847014607204870BDF800000028F2D03C
:1040F000EA88002AEFD0824200D90246ADF80020BB
:104100002046FFF70EFFF8BD70B5002300281DD034
:104110000446002502E06D1CEDB2641C2678002EDA
:10412000F9D1022404EB45041480CC545B1C032217
:10413000CA5400245B1C06E0CA545B1CDAB28C54DF
:10414000521CD3B2401C0278002AF5D170BDD0F8C1
:104150001802002101730846704710B504468121FA
:1041600000F0B1F8D4F8180220B100F0BFFB002035
:10417000C4F81802002010BD2221018000487047B9
:10418000F80000200A210180004870472801002023
:1041900070B50546002404230322812100F072F942
:1041A000102000F0A5FBC5F8180218B1002101731A
:1041B000204670BD0124FBE710B5134690F8FC4182
:1041C000D0F81822032C07D1147B2CB901241473C6
:1041D0000A46812100F013FA002010BD70B50022BC
:1041E0000D78D0F81832144615F060051BD0202D3C
:1041F00040D14A78022A13D0032A0AD00A2A0BD0C7
:104200000B2A03D0FFF777FE022070BD8878186074
:1042100030E00122194624E04888000A586029E06D
:104220000122191D1DE04D78062D04D00A2D1BD04A
:104230000B2D1FD11CE04B882225B5EB132F05D188
:10424000CA884A2A00D94A220B4C09E02125B5EB3D
:10425000132F05D1084CCA88183C092A00D9092215
:104260002146FFF75EFE05E0012203F10801F8E7B1
:1042700088789860002070BD3401002010B580B1AE
:10428000D0F8143213B10023C0F8143209B1C0F8C9
:104290001012012180F8FC11027000F0AFF800202C
:1042A00010BD022010BD10B50024D0F82002FCF78C
:1042B000E5FF30B1012801D0022801D0022400E03E
:1042C0000124204610BD10B50024D0F82002FCF7D0
:1042D000B5FF30B1012801D0022801D0022400E04E
:1042E0000124204610BD2DE9F0411746044641B196
:1042F000D4F8140242698AB394F8FC01032842D02E
:1043000043E0D4F8F411002504F11400022933D15C
:10431000D0E902639E4207D9F31A83609AB2394604
:104320002046FFF7E0FD12E04068B0FBF3F103FB2D
:104330001101A1B9984212D3D4F8F81188420ED2D3
:10434000002211462046FFF7CEFDC4F8F8510023A5
:104350001A461946204600F0A8F80DE012E0D4F8FD
:104360001402C16829B194F8FC01032801D1204648
:1043700088472046FFF7CAFD94F80002012804D1BF
:1043800084F8005201E0204690470020BDE8F0810B
:1043900070B51546044641B1D4F8140282693AB3A7
:1043A00094F8FC01032824D025E0D4F8F41104F596
:1043B000827003291FD1D0E902218A420BD9531AF6
:1043C00083600846834200D303469AB229462046BA
:1043D000FFF781FD0FE0D4F81402016929B194F8C8
:1043E000FC01032801D1204688472046FFF7A6FD9F
:1043F00001E020469047002070BD000010B518492C
:104400000446C1F85C04C0F8201216480860082071
:104410004860022088600320C86000208861C8616D
:1044200008620846FDF74EF808B1FCF7D8FA0022FA
:10443000D4F820021823114604F50874FCF7D4FEC2
:104440005823002280212068FCF7CEFE4FF48073B1
:10445000002281212068FCF7C7FE002010BD00006B
:1044600048060020005C00400A06D0F8200201F057
:104470007F0100EB411002D590F82A00704790F8B8
:104480002A02704770B51D4613460024D0F820025A
:104490002A46FCF717FF30B1012801D0022801D0CD
:1044A000022400E00124204670BD10B50024D0F89D
:1044B0002002FCF729FF30B1012801D0022801D0E9
:1044C000022400E00124204610BD70B500220446FD
:1044D00040231146FFF7D6FF40252B4600228021BE
:1044E0002046C4F81051FFF7CDFF0120256284F863
:1044F000FC01D4F8180228B1D4F8140221794268DA
:1045000020469047002070BD90F8FD1180F8FC1106
:104510000020704710B590F8FC11032904D1D0F8A1
:104520001412C96901B18847002010BD0174002030
:10453000704710B50024D0F82002FDF75EF830B1C6
:10454000012801D0022801D0022400E001242046E5
:1045500010BD70B5044600F50270054600F05FF826
:104560000120C4F8F401B4F80E02C4F8F80194F87C
:10457000080210F01F010AD001290DD0022910D025
:1045800000F08001204600F011F8002070BD29469F
:10459000204600F0AAF8F8E72946204600F08CF9FA
:1045A000F3E72946204600F019F9EEE710B500249C
:1045B000D0F82002FCF7BFFE30B1012801D002285C
:1045C00001D0022400E00124204610BD10B50024D3
:1045D000D0F82002FDF72CF830B1012801D00228D4
:1045E00001D0022400E00124204610BD90F8FC1107
:1045F00080F8FD11042180F8FC110020704710B5EF
:104600000024D0F82002FCF7C1FE30B1012801D00F
:10461000022801D0022400E00124204610BD0A78BF
:1046200002704A7842708A78CB7802EB032242808B
:104630000A794B7902EB032282808A79C97902EBED
:104640000121C18070470246002011B1C2F8141246
:1046500070470220704710B5D0F8142202241AB116
:104660001268904700B90024204610BD70B50E4670
:104670001A4D897804462970012928D894F8FC013C
:10468000022802D0032822D105E099B103206160FD
:1046900084F8FC0109E091B1606888420AD0C1B297
:1046A0002046FFF711FC297861602046FFF7D3FF11
:1046B00002280CD02046BDE87040FFF73FBC022026
:1046C00084F8FC0120466160FFF7FEFBF2E731460B
:1046D0002046BDE87040FFF70EBC0000BC00002083
:1046E00010B5FFF773FF002010BD2DE9F0414B78A6
:1046F0004FF000080125022642460A2B42D2DFE88D
:1047000003F03B56414F410805412926FFF78CFC39
:1047100061E004468888C0B9C888B0B9887800F0DC
:104720007F0794F8FC0103280FD084F8FE71394606
:104730002046FFF7FEFE2046FFF700FC17B184F885
:10474000FC6148E084F8FC5145E020461AE0FFF7A0
:104750008DFF40E0CB88012B14D190F8FC31022B67
:1047600002D0032B0ED104E08260012200F1080187
:1047700013E00122011D10E090F8FC31022B04D05F
:10478000032B02D0FFF7B7FB25E0C260D0F804127C
:1047900001B1C660022200F10C01FFF7C2FB1AE072
:1047A00004464888012816D1C4F804520BE0044698
:1047B00090F8FC01022801D00328C6D148880128BE
:1047C00009D1C4F80422D4F8140282682046904724
:1047D0002046FFF7B3FB4046BDE8F08170B50D46BB
:1047E0000446287800260979C0F34110012806D034
:1047F0006878A0B301281FD003283FD107E0D4F880
:1048000014022946826820469047002070BD94F823
:10481000FC01022817D003282CD1688828B921B1BF
:10482000802902D02046FFF7C1FED4F814022946A1
:1048300082682046904713E094F8FC01022802D0D9
:10484000032817D103E0C9B180291BD116E068887D
:10485000A0B9480604D02046FFF725FDE5E703E0B0
:104860002046FFF76BFB09E094F8FC01022807D013
:1048700003280BD029462046FFF73DFB304670BD8C
:104880004806FBD02046FFF791FEF7E7080601F047
:104890007F0004EB001501D5143501E005F58275A4
:1048A0002046FFF7E1FD00B10120286002222946E1
:1048B0002046FFF736FBE1E770B5054690F8FC01AE
:1048C0000C4603280DD1207901280AD8D5F8140206
:1048D000826828469047E08830B92846FFF72EFBCB
:1048E00002E02846FFF707FB002070BD704700007C
:1048F00000487047340600202DE9F047CC780A784C
:1049000048F68F1334B1012C6DD0022C08D0032C43
:1049100013D10BE030F822401C4044F400730AE04D
:1049200030F822401C4020F8224006E030F82240B7
:104930001C4044F4C06320F822300C7830F8245036
:1049400048F68F72154048F280031D43254320F836
:1049500024508D7A48F6BF7904274BF68F7A48F2B7
:10496000C0044CF28006EDB30D7830F825C048F253
:1049700080180CEA020C4CEA080C20F825C0CD88FF
:10498000B0F850C025F0010591F800800CEBC80C80
:1049900000EB4C0CCCF800540D89B0F850C025F059
:1049A000010591F8008007EBC807674400EB470753
:1049B000C7F800544D78002D0D7830F825704FEA77
:1049C00047477DD0002F05DA30F825701740374370
:1049D00020F825700D7830F825707F0608D530F85E
:1049E000257001E024E01DE01740274320F82570E2
:1049F0000C7830F824501540354320F824500C78BA
:104A000030F8242002EA09021A4320F824200A7808
:104A100030F8221001EA0A01194320F82210002080
:104A2000BDE8F08730F822401C4044F4806382E700
:104A30004D78F5B18D88B0F8506025F001050F78FC
:104A400006EBC70600EB4606C6F800540D7830F8B2
:104A50002560760605D530F825601640264320F8F7
:104A600025600A7830F8221001EA090181F020015E
:104A7000D2E78C88B0F8505024F0010491F800C0BF
:104A800007EBCC073D4400EB4505C5F80044B0F802
:104A900050400D78062707EBC5052C4400EB440772
:104AA0000C694FF6FF7C07F580673E2C0CD9C4F3E8
:104AB0004F15E40601D16D1EADB20CEA852400E06D
:104AC0001EE044F4004407E0C4F34F05E40701D0BE
:104AD0006D1CADB20CEA85243C600C7830F8245093
:104AE0006D0405D530F824501540354320F8245086
:104AF0000A7830F8221001EA0A0181F440518BE76C
:104B0000002F05DA30F825701740374320F825705C
:104B10000D7830F82560760605D530F8256016400A
:104B2000264320F825600E7830F82650154025439E
:104B300020F826500C7830F8242002EA0A0282F489
:104B400040521A4320F824200A7830F8221001EA53
:104B5000090161E7002070472DE9F04391F80A80D0
:104B600091F801C00A7848F6BF774BF68F7948F282
:104B7000800348F2C0054CF2800648F68F74B8F105
:104B8000000F2ED0BCF1000F30F822C04FEA4C4C81
:104B90004ED0BCF1000F07DA30F822C00CEA040C4A
:104BA0004CEA060C20F822C00A7830F822C05FEAEE
:104BB0004C6C07D530F822C00CEA040C4CEA050C0A
:104BC00020F822C00A7830F822502540354320F8DA
:104BD00022500C7830F824203A401A4320F8242040
:104BE0001BE0BCF1000F0ED030F82260760605D530
:104BF00030F8226026402E4320F822600A7830F8F0
:104C0000221039400EE030F822506D0405D530F8FE
:104C100022502540354320F822500A7830F82210DF
:104C200001EA0901194320F822100020BDE8F083B1
:104C3000BCF1000F07DA30F822C00CEA040C4CEA91
:104C4000060C20F822C00A7830F82260760605D5D6
:104C500030F8226026402E4320F822600E7830F88B
:104C6000262022402A4320F826200C7830F82420E1
:104C700002EA09021A4320F82420BFE70020704707
:104C80000020704700B50121A0F840100021A0F8D5
:104C90004010A0F84410A0F8501000F03AF900209D
:104CA00000BD30F8401F21F43D41018000207047D5
:104CB0000020704730B54D780A78002D48F68F7483
:104CC00030F8225048F2800312D06D0607D530F834
:104CD0002250254048F2C004254320F822500A788B
:104CE00030F8221048F6BF74214081F0300111E005
:104CF0006D0407D530F8225025404CF2800425433E
:104D000020F822500A7830F822104BF68F74214098
:104D100081F44051194320F82210002030BD10B515
:104D20000A7848F2800352B14978002930F82210FD
:104D300010D048F6BF74214081F010010FE00188C7
:104D40004BF6BF72114081F4805181F0100119437C
:104D5000018007E04BF68F74214081F480511943A4
:104D600020F82210002010BD2DE9F0410D46064626
:104D7000896995F801C00023AA7A022728690C46A0
:104D800048F28008BCF1010F05D0814252D9044697
:104D9000081AA8614FE0814203D90446081AA861A5
:104DA00000E0AB617AB1287836F820104906B6F8F1
:104DB000501007EBC000084406EB4000C0F8004468
:104DC00012D52A8911E0A3B2AA883046696900F099
:104DD00002F9B6F85000297807EBC101084406EB48
:104DE0004000C0F800441CE0EA88A3B2304669697C
:104DF00000F0F1F8687848F68F7110B1012807D0FB
:104E00000FE0287836F820200A4048F2C00105E07B
:104E1000287836F820200A404CF280010A4326F810
:104E20002020297836F8210048F6BF72104080F023
:104E3000300067E0AB6106234FF6FF701AB1BCF19A
:104E4000000F1BD056E0B6F850102A783E2C03EB2A
:104E5000C202114406EB410202F5806239D9C4F363
:104E60004F11E30632D000BF00EA812040F4004039
:104E700002E000BF00EA812010603BE0B6F850106D
:104E80002A783E2C07EBC202114406EB410202F5E0
:104E900080620BD9C4F34F115FEAC46C01D1491E83
:104EA00089B200EA812141F4004108E0C4F34F01D6
:104EB0005FEAC47C01D0491C89B200EA81211160FB
:104EC00069780029BFD001290AD013E0491E89B2B0
:104ED000CAE7C4F34F01E307CCD0491C89B2C9E744
:104EE000B6F85000297807EBC101084406EB4000F2
:104EF000C0F80044297836F821004BF68F72104034
:104F000080F4405040EA080026F821000020BDE867
:104F1000F08130F8401F41F43F410180002070478C
:104F20000148FCF748BA0000480600200148FCF799
:104F300042BA000048060020B0F844007047000064
:104F40005B1C00EB42005B0800F5806006D000BFF0
:104F500030F8042B21F8022B5B1EF9D170470000BA
:104F6000114808B5008880071CD41048816941F0B9
:104F700004018161806900F0040000900A48403813
:104F800000F020F80A48016821F47F2101600168DF
:104F900041F44C31016000228114BDE80840001F3B
:104FA000FCF73FB808BD0000405C00400010024024
:104FB000040801400020704711B98021A0F84C106E
:104FC00000207047012120F8401F0021818003212B
:104FD00001800020704710B55B1C00EB42005B08AD
:104FE00000F5806009D011F8012B5B1E11F8014B10
:104FF00042EA042220F8042BF5D110BDFEE70000A0
:105000000FB4054B10B503A9044A029800F018F834
:1050100010BC5DF814FB0000A55400082402002019
:1050200002E008C8121F08C1002AFAD17047704771
:10503000002001E001C1121F002AFBD170470000CF
:105040002DE9FF4F8DB00F460546002606E02528C6
:105050000BD0DDE90F1290476D1C761C28780028D4
:10506000F5D111B03046BDE8F08F0024A246A1462C
:105070000122EC4900E0044315F8013F203B02FA0D
:1050800003F00842F7D128782A2810D06FF02F02B9
:105090002878A0F13001092914D80AEB8A0102EB23
:1050A000410144F0020400EB010A6D1CF0E701CF5E
:1050B0005FEA000A03D544F40054CAF1000A44F040
:1050C00002046D1C28782E2817D115F8010F44F022
:1050D00004042A280ED06FF02F022878A0F13001A6
:1050E00009290AD809EB890102EB410100EB01090A
:1050F0006D1CF2E757F8049B6D1C28786C280FD0C4
:1051000006DC4C2817D068280DD06A2814D104E09A
:10511000742810D07A280FD10DE044F400140AE06E
:1051200044F4801401E044F440146978814202D1CF
:1051300004F580146D1C6D1C2A786E2A1FD00CDCBF
:10514000632A31D004DC002A8BD0582A11D1A3E085
:10515000642A68D0692A0CD165E0732A2ED004DC59
:105160006F2A73D0702A04D19BE0752A6FD0782AF9
:105170006ED01046DDE90F129047761C50E1C4F363
:105180000250022806D0032809D0042801CF09D0F4
:10519000066045E101CFF117C0E9006140E101CFB0
:1051A00006803DE106703BE117F8040B8DF8000026
:1051B00000208DF80100EB46012003E057F804BB06
:1051C0004FF0FF3061074FF0000102D40DE008F10D
:1051D0000101884649450FDA8045F8DB1BF80810C5
:1051E0000029F4D108E008F1010188468142FADB88
:1051F0001BF808100029F6D1DDE90F23AAEB0800FF
:105200008146214600F036F9304400EB080604E000
:10521000DDE90F121BF8010B9047B8F10108F7D236
:1052200021464846F7E00A21C4F302534FF0000B31
:105230000891022B04D001CFC117032B09D00AE03B
:10524000FF1D27F00707F7E8020108E032E01FE042
:1052500020E000B2C117042B01D140B2C117031ED8
:1052600071F1000307DA4FF0000CD0EB0C006CEB8F
:1052700001012D2302E0230504D52B238DF82430D2
:10528000012303E0E30701D02023F7E7984658E025
:105290000A2110E010210EE010204FF0000B0890C2
:1052A0000CE010214FF0000B44F004044FF008090B
:1052B000089103E008214FF0000B0891C4F302535A
:1052C000022B04D001CF0021032B06D006E0FF1DE6
:1052D00027F00707F7E8020103E080B2042B00D1B2
:1052E000C0B24FF0000823072BD5702A07D0DDF895
:1052F00020C08CF0100C5CEA0B0C05D00EE04023B3
:105300008DF82430012308E050EA010306D0302351
:105310008DF824308DF8252002239846DDF820C032
:105320008CF0080C5CEA0B0C0BD150EA010301D1A4
:10533000630706D530238DF824304FF00108A9F11A
:105340000109582A04D038A20B9208AA0A920BE04D
:105350003AA2F9E75B46089AFAF78EFF0B9B9B5C33
:105360000A9A521E0A92137050EA0102F2D10A9868
:10537000ADEB000000F1200B600702D524F480346F
:1053800001E04FF00109D94502DDA9EB0B0000E077
:10539000002000EB0B0141440890AAEB010AE00356
:1053A00006D4DDE90F232146504600F063F8064499
:1053B0004FF0000908E009A911F80900DDE90F1212
:1053C000904709F10109761CC145F4DBE0030CD5D7
:1053D000DDE90F232146504600F04CF8064404E076
:1053E000DDE90F1230209047761C0899481E08907E
:1053F0000029F5DC08E00A980A990078491C0A910E
:10540000DDE90F129047761CBBF10001ABF1010BF7
:10541000F1DC21465046DDE90F2300F019F806447F
:105420006D1C1BE609280100303132333435363724
:1054300038396162636465660000000030313233E0
:105440003435363738394142434445460000000080
:105450002DE9F041044600251E461746880404D471
:1054600005E039462020B0476D1C641EF9D528465A
:10547000BDE8F0812DE9F041044600251E46904626
:10548000C80301D5302700E02027880404D505E0B3
:1054900041463846B0476D1C641EF9D52846BDE824
:1054A000F081000013B5012269460448FDF750F869
:1054B000012004F0A5F900201CBD000048030020D5
:1054C000EFF30580002800D00120704710B580213F
:1054D0000448FBF7A1FD012801D0012010BD0020E8
:1054E00010BD0000000C014010B504210448FBF77A
:1054F00093FD012801D0012010BD002010BD000047
:10550000000C014010B54FF400610448FBF784FD26
:10551000012801D0012010BD002010BD000C014069
:1055200010B54FF400410448FBF776FD012801D087
:10553000012010BD002010BD0008014010B5082159
:105540000448FBF769FD012801D0012010BD0020AF
:1055500010BD0000000C014010B502210448FBF70B
:105560005BFD012801D0012010BD002010BD00000E
:10557000000C01402DE9F05F044600780527002566
:105580006D4E4FF006094FF0040B4FF0030A4FF633
:10559000FF780F281CD2DFE800F0080E1D263755D3
:1055A000656F747B8A8E97ACC900E06880470028DD
:1055B0000ED101206AE06088401C80B26080E188E2
:1055C000884205D3E068804708B902201AE02570B8
:1055D000BDE8F09F6178012000EB012000F0FEF8AB
:1055E00084F800A06EE06088401C6080E06880471E
:1055F0006188A288914204D20128E9D184F800B0E0
:10560000E6E70B202070E3E73188414502D160884E
:10561000308065806088401C80B26080E18888426C
:10562000D6D3E0688047012809D084F800A06088BC
:1056300031880844A4F80200A6F80080C8E7277063
:105640006580F9E76088401C6080E0688047618879
:105650002289914203D20028BAD1072016E084F8AB
:105660000090B5E7607807EB002000F0B7F86178AC
:10567000022000EB01205CE02046BDE8F05F00F076
:1056800081B8E06880470128A2D10920207019E084
:105690006088401C80B26080E188884298D3E068CE
:1056A0008047012801D00820ACE70A20AAE76178EA
:1056B0000BEB01203DE0607809EB002000F08EF854
:1056C0000C20E3E7658083E76088401C6080E06829
:1056D0008047012801D10D202070618860898142B6
:1056E0008ED300288CD0607807EB002000F076F88D
:1056F000E8E7B088404502D16088B0806580608866
:10570000401C80B26080E188884297D3E06880477F
:10571000012808D00C2020706088B188084460807F
:10572000A6F8048054E70E202070F9E761780AEBB0
:10573000012000F053F84AE7BC01002070B50625AF
:10574000054E002406EB0410FFF714FF641CE4B2BE
:10575000AC42F7D370BD0000C4010020084991F8A5
:10576000210091F82020904201D10020704731F8AB
:105770001200521C02F00F0281F820207047000036
:10578000E04600202DE9F041134D04464FF6FF7628
:1057900068880027B04202D160886880678060888E
:1057A000401C80B26080E188884209D3E06880476D
:1057B00040B10520207060886988084460806E8050
:1057C000BDE8F0816078072101EB002000F006F8C9
:1057D000082020706780F2E7BC0100200A4991F898
:1057E000212021F8120091F82100401C00F00F0246
:1057F00081F8212091F82000824204D1401C00F061
:105800000F0081F820007047E04600201CB5FBF730
:105810001BFCFEF779F8FFF7A3FBFCF735FFFCF75D
:10582000F1FEFCF7F7FFFDF72DF8FCF7CFFFFDF7D2
:1058300045F8FCF7D2FE0C210948FCF73BFDFCF7CC
:105840000FFF08490120CDE900010202002306A153
:10585000084804F09FFD00F01CF800201CBD00006B
:10586000080300209001002053746172745F54613A
:10587000736B00000538000801460020842900D021
:10588000C81C704710B500B9012003F0B9FF002013
:1058900010BD10B504F024F9002010BD3EB504463B
:1058A0000D46B0F90800FFF7E7FF02A9CDE90001B6
:1058B000208A2B4682B2D4E9001004F06BFD012847
:1058C00001D000203EBD02983EBD000008B5006832
:1058D0000090012907D0002013460246012103A0B1
:1058E00004F020FF08BD0120F6E7000000000000E2
:1058F0002DE9FC41002507462E4601950C0000D1FC
:105900000124FFF7DDFD009690B101AB224609218D
:10591000384604F053FF012812D1019888B10A4992
:105920004FF080500860BFF34F8FBFF36F8F08E0D8
:10593000002322460421384604F040FF012800D00D
:10594000FF252846BDE8FC8104ED00E02DE9F0418B
:10595000184C0F460546E6682068001D03F02DFE32
:1059600038B9206890F82C100120884021698143C3
:105970002161681C07D137B12168BDE8F0410E48AC
:10598000091D03F05FBE20683544B54245602168BB
:1059900005D2A06BBDE8F041091D03F03BBE606B72
:1059A000091D03F037FEA06A854200D2A562BDE85A
:1059B000F081000048000020240E00202DE9F04175
:1059C000054603F04BFE2E4CA068401CA0602068EA
:1059D0002C4F10B1606940B32DE02560A06801280C
:1059E00029D1002606EB860007EB800003F004FEB9
:1059F000761C072EF6D323488C3003F0FDFD21489A
:105A0000A03003F0F9FD1F48B43003F0F5FD1D4848
:105A1000C83003F0F1FD1B48DC3003F0EDFD194800
:105A20008C3060631430A06305E02068E96AC06AC6
:105A3000884200D82560606A401C6062E96A0120E3
:105A4000226988401043206101EB810007EB800050
:105A5000291D03F0F7FD03F021FE606900280CD03A
:105A60002068E96AC06A884207D207494FF080502F
:105A70000860BFF34F8FBFF36F8FBDE8F081000068
:105A800048000020480D002004ED00E010B503F0B0
:105A9000E5FD0E4C2068A0B90D4803F0ADFD0C48A3
:105AA000143003F0A9FD0A48E060143020610022A0
:105AB0000C21052004F00CFA206010B105A103F0C0
:105AC00069FEBDE8104003F0E9BD0000840000203D
:105AD000380E0020546D72510000000070B5114E58
